HEBV03E202312090014000000000080128456                                          
HEH9686462285TY2012102511100029HCPP                                            
HETV404A  0051000120231209367                                                  
HEH8937654542EJ2011091911100030HCPP                                            
HETV404A  0051000120231209367                                                  
HEH8843349211LT2016110911100031HCPP                                            
HETV404A  0051000120231209367                                                  
HEH8495858469LT2015080311100032HCPP                                            
HETV404A  0051000120231209367                                                  
HEH6373584884AJ2013121311100033HCPP                                            
HETV404A  0051000120231209367                                                  
HEH5409013744XF2015040111100034HCPP                                            
HETV404A  0051000120231209367                                                  
HEH5046677851EY2006122311100035HCPP                                            
HETV450A  0048000120231209367                                                  
HEH4811796863GB2016051711100036HCPP                                            
HETV404A  0051000120231209367                                                  
HEH3491321869GY2013072311100037HCPP                                            
HETV404A  0051000120231209367                                                  
HEH1485723413DK2020091711100038HCPP                                            
HETV404A  0051000120231209367                                                  
HEH1434762926JB1977042511100039HCPP                                            
HETV451A  0048000120231209374                                                  
HEE0011000000011                                                               
